:020000040800F2
:100000005071002045010008B52200080F020008C9
:10001000D9210008350A0008133800080000000044
:10002000000000000000000000000000A52B0008F8
:10003000B31100080000000097010008EB2C000835
:100040005F0100085F0100085F0100085F01000810
:100050005F0100085F010008B11600085F01000899
:10006000E5160008191700084D1700085F01000881
:100070005F0100085F0100085F0100085F010008E0
:100080005F0100085F0100085F0100085F010008D0
:100090005F0100085F0100085F0100085F010008C0
:1000A0005F0100085F0100085F0100085F010008B0
:1000B0005F0100085F010008B53200085F01000819
:1000C0005F0100085F0100085F0100085F01000890
:1000D0005F010008053500085F0100085F010008A6
:1000E0005F0100085F0100085F0100085F01000870
:1000F0005F0100085F0100085F0100085F01000860
:100100005F0100085F0100088D3300085F010008EF
:100110005F0100085F0100085F0100085F0100083F
:100120005F0100085F0100085F0100085F0100082F
:10013000DFF80CD000F002F900480047D5030008B2
:10014000507100200648804706480047FEE7FEE75A
:10015000FEE7FEE7FEE7FEE7FEE7FEE7FEE7FEE777
:10016000512D000831010008EFF3108072B670477E
:1001700080F310887047324A1368012B04D04FF087
:10018000010313602F4A10602F4A11602F484FF06F
:10019000805101607047EFF3108272B62848016801
:1001A00091B14FF0000101602648016829B1EFF3D9
:1001B000098121E9F00F0068016023490968096895
:1001C000B1E8F00F81F3098882F310884EF0040E35
:1001D00070471D4908601B494FF00000086018492E
:1001E0004FF0010008601A484FF47F01D0F800205A
:1001F00041EA0201016015484FF080510160154845
:100200000068006880F3088861B662B670471EF027
:10021000040F14BFEFF30880EFF3098020E9F00F1B
:1002200040F804ED14BF80F3088880F3098800B516
:1002300004F0E0FF5DF804EB4EF0040E70470000A0
:10024000940100208C0100209001002004ED00E0CA
:1002500020ED00E008ED00E040EA01039B0703D039
:1002600009E008C9121F08C0042AFAD203E011F8F5
:10027000013B00F8013B521EF9D27047421C10F8B6
:10028000011B0029FBD1801A704710B5002200E045
:10029000521C835C8C5CA34201D1002BF8D1D8B2F4
:1002A000E1B2401A10BD034611F8012B00F8012BF2
:1002B000002AF9D1184670472DE9F05F0546002065
:1002C00092469B4688460646814640241BE02846C7
:1002D00041464746224600F020F853465A46C01A87
:1002E000914110D311461846224600F039F82D1AD4
:1002F00067EB01084F4622460120002100F030F84C
:1003000017EB00094E41201EA4F10104DFDC484632
:1003100031462A464346BDE8F09F202A04DB203AB6
:1003200021FA02F00021704721FA02F3D040C2F115
:10033000200291400843194670470000064C074DC3
:1003400006E0E06840F0010394E8070098471034A5
:10035000AC42F6D3FFF7F0FE449805086498050810
:10036000202A04DB203A00FA02F100207047914075
:10037000C2F1200320FA03F319439040704770B58F
:100380008C1810F8015B15F0070301D110F8013B40
:100390002A1106D110F8012B03E010F8016B01F8C7
:1003A000016B5B1EF9D12B0705D40023521E0DD41F
:1003B00001F8013BFAE710F8013BCB1A921C03E06D
:1003C00013F8015B01F8015B521EF9D5A142D8D3A5
:1003D000002070BD10B5FFF7C7FE06F03DFA002003
:1003E00010BD10B501F0BEFB10BD00002DE9FE43AD
:1003F0008046F749522002F0E0F8002844D0F44942
:10040000522002F0DAF8002834D00120F1490860C7
:10041000F149C1F89401F149087008460078F049A3
:100420000978884239D0ED480078ED4908704FF6D8
:10043000FF7001F0DBFBEBA018214FF4FC622823D6
:10044000CDE9002102904FF4F0724FF49671002034
:1004500004F0B2FAEBA018214FF478426423CDE9FE
:10046000002102904FF4F0724FF42F71002004F03D
:10047000A3FA12E0E84801F06EFF0120E749087096
:100480000020E749086008E0E34801F064FF01202C
:10049000E24908700020E2490860E048007800283E
:1004A0007ED00020DD490870DB4802F0F1F800281A
:1004B00077D1D94BDB4ADC480178602001F083FF1B
:1004C000002876D1D44BD94AD7480178612001F071
:1004D0007AFF00286DD1BF490860D549D54800781A
:1004E00002F041F8002867D1D349D448007802F0DF
:1004F0003AF8002860D1D249D248007802F033F8A7
:10050000002859D1B549087008460078B4490978DF
:10051000884251D0B1480078B14908704FF6FF7059
:1005200001F064FBC8A01821CDE90010C74843883A
:1005300002881E210A2001F0B0FDBD481821CDE936
:100540000010C248438802881E212E2001F0A5FD1C
:10055000BFA01821CDE90010BC48438802883C2187
:100560000A2001F09AFDB4481821CDE90010B748DF
:10057000438802883C21462001F08FFDB6A0182157
:10058000CDE90010B148438802885A210A2001F0C1
:1005900084FDAB481821CDE90010AC48438802E047
:1005A0000AE1B9E005E002885A21522001F075FD08
:1005B00002E0012087490860974B9A4AA8480178D1
:1005C000602001F000FF002864D1934B974AA448B3
:1005D0000178612001F0F7FE00285BD1A149A24813
:1005E000007801F0C0FF002854D1A049A04800784D
:1005F00001F0B9FF00284DD19A4800789D49087054
:100600009DA01821CDE900109048438802887821E8
:100610000A2001F042FD9748007870B99AA018218D
:10062000CDE9001089484388028896210A2001F00C
:1006300034FD0120974908702CE09648007860B19D
:100640004FF6FF70B4234FF4F072962100900A2009
:1006500001F074FB00208F490870002616E08349E2
:10066000885D03F01BFCD0F800901820CDE900094C
:10067000764843880288C6EB06104FF0960C0CEBC8
:1006800040010A2001F009FD701CC6B279480078CB
:100690008642E4DB8048008800F40040002848D00F
:1006A00000207E4908807C480778002518E07C48B7
:1006B000405D7C4948550846405D30280EDB0846C1
:1006C000405D39280ADC0846405D303873490988A6
:1006D00001EB810100EB410070490880681CC5B244
:1006E000BD42E4DB00206F49C8556B4908806B4967
:1006F000087803F0D3FB007978B101206A490870CB
:100700006AA01821CDE9001050484388028840F2C1
:10071000EE21322001F0C1FC0BE065A01821CDE9EB
:1007200000104A484388028840F2EE21322001F04E
:10073000B4FCB8F1000F49D05B48007801283BD1E8
:10074000354B384A46480178602001F03CFEA0BB9A
:10075000314B364A42480178612001F034FE60BBDB
:100760004E49087803F09AFB407930B34B48007843
:100770003E49404A127888543A480078401C39492A
:1007800008700020484908704BA003F05DF8374915
:100790003748007801F0AEFF80B93249324800781E
:1007A00001F0A8FF50B93D49087803F077FB00211C
:1007B000417144A003F048F80DE103E044A003F0C8
:1007C00043F808E142A003F03FF804E186E00000AE
:1007D000380400209401234200802142600400205C
:1007E00061040020504C454153452050555420434E
:1007F000415244204F4E2054484520434F4E534FC2
:100800004C45000052455455524E20544F205448F8
:100810004520434F564552003A0400205E04002014
:10082000948121423E0400204D0400204404002015
:10083000384900204A040020484900204B04002089
:10084000584900204C04002049443A006800002028
:100850006E616D653A00000067726164653A000080
:1008600050040020684900204E04002078490020F0
:100870004F0400205D040020426F72726F77656440
:1008800020426F6F6B3A00004E6F204D65737361AD
:10089000676500005F040020D0000020580400209D
:1008A00006050020874A00205B0400204F4B000013
:1008B0004552524F45000000BDF8C8EBB3C9B9A678
:1008C0000D0A0000BDE8CAE9B3C9B9A60D0A0000C7
:1008D000BDE8CAE9CAA7B0DC0D0A00003F480078AD
:1008E000012878D13E4B3F4A3F480178602001F013
:1008F0006AFD00286FD13A4B3C4A3B4801786120A1
:1009000001F061FD002866D13949087803F0C6FA84
:10091000407900285FD1AFF2600002F095FF00241B
:100920000BE03448005D32490988884203D1012038
:100930003149087005E0601CC4B230480078844238
:10094000EFDB00BF2C480078012841D12CA002F039
:100950007BFF00202849087008E02649601C085CDD
:1009600008550021234A601C1154C4B22149601C5F
:10097000085C0028F1D124480078401E2249087004
:100980000020164908701B492048007801F0B2FE8B
:10099000D0B91D491E48007801F0ACFEA0B9144939
:1009A000087803F07BFA012141711AA002F04CFF94
:1009B0004FF6FF704FF42F734FF4F07296210090B2
:1009C0000A2001F0BBF906E015A002F03DFF02E0AD
:1009D00016A002F039FFBDE8FE8300005B04002092
:1009E0003A0400203E04002050040020440400206B
:1009F00058040020784900205C0400205D04002099
:100A0000D5D2B5BDC1CB0000684900204F040020FD
:100A10004E040020BBB9CAE9B3C9B9A60D0A00004B
:100A2000BBB9CAE9CAA7B0DC0D0A0000CEB4D5D262
:100A3000B5BD000000BFFEE70EB50121802001F02A
:100A400051FF4FF40060ADF8000010208DF8030056
:100A500003208DF8020069462E4800F0A3FF4FF4F2
:100A600000612C4801F02BF84FF48060ADF80000D5
:100A700048208DF803006946264800F093FF4FF4A4
:100A80008061244801F01BF800F0E8F900202249B9
:100A90000860142003F08EFC01202049C1F8AC014D
:100AA000322003F087FC012201A9A72000F046F8BC
:100AB0009DF804101AA002F0C7FE00208DF8040073
:100AC000012201A900F07EF9012201A9A42000F071
:100AD00079F916208DF80400012201A9802000F088
:100AE00071F90C208DF80400012201A9882000F082
:100AF00069F9022201A9A12000F020F89DF8050063
:100B00009DF8042000EB022109A002F09DFE0020C8
:100B10000EBD0000001C0140AC8123420080234236
:100B200074656D705B305D3D25640D0A000000004A
:100B30004354502049443A25780D0A002DE9F041EC
:100B400006460F46154600F019FA2A2000F0F0F983
:100B500000F048FAF0B200F0EBF900F043FA00F0D0
:100B60000DFA2B2000F0E4F900F03CFA00240BE031
:100B7000691EA14201D0012100E00021084600F0D9
:100B8000ABF93855601CC4B2AC42F1DB00F010FA8E
:100B9000BDE8F081F1B582B0002400277F480078DD
:100BA000401C7E490870084600780A2190FBF1F24B
:100BB00001FB120018B1794800780A287EDA012278
:100BC00002A90220FFF7BAFF9DF8080000F00F000D
:100BD000002873D09DF8080000F00F0070490978D4
:100BE00088426BDC9DF8080000F00F01FF20884070
:100BF000C5B26C48868EE84380B240F0C0006949B7
:100C000088860846828966480078401E0C3121F8A3
:100C100010206448028C62480078401E143121F88C
:100C20001020042003F0C6FB002456E05D48808EAF
:100C30000121A140084000284DD05B4931F8140043
:100C4000042201A9FFF77AFF564890F8440000F00B
:100C50000100C0B19DF805009DF8041001F00F01DE
:100C600000EB01204F49203121F814009DF80700C6
:100C70009DF8061001F00F0100EB012049490C31ED
:100C800021F8140017E09DF805009DF8041001F00C
:100C90000F0100EB012043490C3121F814009DF8AD
:100CA00007009DF8061001F00F0100EB01203D49FF
:100CB000203121F814003B48203000E048E030F8B3
:100CC0001400009037480C3030F814202346214699
:100CD00036A002F0B9FD601CC4B2314800788442ED
:100CE000A4DB01272F48808935490988884205DC23
:100CF0002C48008C32494988884226DD9DF808003E
:100D000000F00F0001280ADD2648C08925498881A6
:100D10000846408C088400202049087018E02048CC
:100D20000078401E1F490C3131F810000C398881C1
:100D30001B480078401E203131F81000203908840B
:100D4000802002900846868602E000201349087041
:100D50009DF8080000F01F00B8B9124890F8340060
:100D600000F0800030B10F48808E20F080000D49E7
:100D700088860AE04FF6FF700A4988810884084691
:100D800090F8340000F0E000888604480078F028ED
:100D900002DD0A20014908703846FEBD76000020B9
:100DA000750000207800002086B20008785B25647A
:100DB0005D3A25642C795B25645D3A25640D0A0053
:100DC000680000202DE9F04105460E4617464FF019
:100DD000000800F0D3F82A2000F0AAF800F002F989
:100DE000E8B200F0A5F800F0FDF800240BE0305D5B
:100DF00000F09EF800F0F6F88046B8F1000F00D041
:100E000003E0601CC4B2BC42F1DB00BF00F0D0F8CC
:100E10004046BDE8F08110B5052003F001FB10BD90
:100E200010B500200A49086000F012F9FFF7F3FF3F
:100E300000200849C1F8A401FFF7EDFF0120044993
:100E40000860FFF7E8FF00200349C1F8840110BDE6
:100E500084812142008023420080214208B5012183
:100E6000882001F03FFD0220ADF8000010208DF831
:100E7000030003208DF802006946064800F092FD49
:100E80004FF40070ADF800006946034800F08AFD99
:100E900008BD0000000C0140001C014010B50020FE
:100EA0000A49086000F0D4F8FFF7B5FF01200849AF
:100EB000C1F8A401FFF7AFFF012004490860FFF764
:100EC000AAFF00200349C1F8840110BD848121429A
:100ED000008023420080214270B50546002400F0C6
:100EE000A7F81E2003F09CFA002611E000200D490F
:100EF0000860FFF790FF01200B49C1F884016006EC
:100F0000040E0A48006808B1601CC4B2701CC6B266
:100F1000082EEBDB15B9FFF7C1FF01E0FFF780FFFB
:100F2000204670BD848121420080214224812342D9
:100F300070B5044600F08CF800200D490860FFF7FA
:100F40006AFF002511E0E0090A4908606006040E06
:100F500001200949C1F88401FFF75DFF0020044921
:100F60000860FFF758FF681CC5B2082DEBDB70BDA9
:100F700084812142A48123420080214210B500F0E7
:100F800067F80120084908600849C1F884011E205B
:100F900003F046FA002004490860FFF73CFF0020F8
:100FA0000249C1F8840110BDA4812342008021427E
:100FB00010B500F04DF80120074908601E2003F02D
:100FC0002FFA00200549C1F8A401FFF724FF0120F2
:100FD0000349086010BD0000848121420080234243
:100FE000A481234210B5002400F022F801200D490D
:100FF00008600D49C1F88401FFF70DFF09E0601C8E
:10100000C4B2FA2C03DDFFF7D3FF012010BDFFF7B8
:1010100002FF0448803800680028F0D103490860C6
:1010200000BFF3E7A4812342008021428481214252
:1010300008B54FF40070ADF8000048208DF80300AB
:101040006946024800F0AEFC08BD0000001C0140EB
:1010500008B54FF40070ADF8000003208DF80200D1
:1010600010208DF803006946014800F09BFC08BD84
:10107000001C01402DE9F041074688461546042131
:10108000052000F089F80021012002F0C5FB802135
:101090000A2001F088FD002405E0395D092002F0F6
:1010A000BBFB601CC4B24445F7DB0321012002F006
:1010B000B3FBFF2400BF052001F08EFC0646601E36
:1010C000C4B21CB106F004000028F4D0222001F0C4
:1010D00083FC2870212001F07FFC6870BDE8F0815E
:1010E0000EB54FF6FF7000F081FD16A018214FF4E9
:1010F000FC623C23CDE900210290DA004FF49671A6
:10110000002003F059FC17A018214FF4FC623C2387
:10111000CDE900210290DA004FF4B471002003F011
:101120004BFC18A018214FF478426423CDE900212C
:1011300002904FF4F0724FF42F71002003F03CFC4A
:101140000EBD000041444420534F4D4520424F4FB7
:101150004B20544F20544845204C4942524152594B
:101160000000000044454C45544520534F4D452058
:10117000424F4F4B2046524F4D204C49424152590D
:101180000000000052455455524E20544F20544800
:101190004520434F5645520070B505460C4628463B
:1011A00001F01AFC064626EA0401284602F034FB48
:1011B00070BD70472DE9F041064600270024002548
:1011C0003548416800208847334890F8340000F0E3
:1011D000800058B130488089304908802E48008C02
:1011E0002F49088001202F49087052E02D480078CF
:1011F00000284ED000202B490870002447E000252D
:101200003DE0294850F8340005EB450200EB82012F
:101210000888224A128890422FDA08888A88104467
:101220001E4A1288904228DD48881D4A1288904242
:1012300023DA4888CA881044194A128890421CDD73
:10124000887AA8B1887A072817D2DFE800F0160458
:10125000090B0D070F008020BDE8F0818120FBE71E
:101260000820F9E70D20F7E72020F5E78220F3E7D3
:101270000EB1487AF0E7087AEEE7681CC5B20A4872
:1012800000EBC4000079A842BBDC601CC4B2052C92
:10129000B5D30020E0E700007800002030040020F3
:1012A0003204002034040020DC9705082DE9FE4FAD
:1012B0000646884691461F46DDF830A000240025EA
:1012C000FF234FF4F0724FF4E1710020CDE9006785
:1012D00000F076F800BF27E000251DE0BAF1000F0E
:1012E0000CD12E4951F8341005EB450201EB820078
:1012F0003B464A46414600F03DF90BE0274951F88C
:10130000341005EB450201EB82003B464A4641465C
:1013100000F092F8681CC5B2204800EBC4000079C8
:10132000A842DBDC601CC4B2052CD5D31CA0102164
:1013300000223223CDE90021029041224FF40A71AC
:1013400040F29F1003F038FB17A010210022322337
:10135000CDE9002102903C2240F25B21002003F005
:101360002BFB13A0102100223223CDE90021029093
:10137000462240F28E21002003F01EFB0EA0102119
:1013800000223223CDE900210290B42240F28E21C6
:10139000962003F011FBBDE8FE8F0000DC970508E6
:1013A000456E746572000000536869667400000041
:1013B00043617073000000005370616365000000BA
:1013C0002DE9F84304460D4616461F46DDE9089808
:1013D000E81983B2A01982B229462046CDF80090C0
:1013E00000F0ACFCA01982B22B4629462046CDF86D
:1013F000008000F04DFCE81983B2224629462046C1
:10140000CDF8008000F044FCE9198BB2A1198AB232
:10141000A11988B22946CDF8008000F039FCE819FE
:1014200083B2A01982B2E81981B22046CDF80080BB
:1014300000F02EFCBDE8F8832DE9F84F04460E4677
:1014400090461D464FF00009CA464848A0F8008063
:10145000474806800CB9BDE8F88F00966788B4F855
:1014600006C06744BBB22788B4F804C06744BAB268
:101470006188208800F062FC00952788B4F804C0D9
:101480006744BAB263881946208800F001FC0095D1
:101490006788B4F806C06744BBB2228861881046EA
:1014A00000F0F6FB00956788B4F806C06744BBB24D
:1014B0002788B4F804C06744BAB227886744B8B232
:1014C000618800F0E5FB00956788B4F806C06744C2
:1014D000BBB22788B4F804C06744BAB26788B4F8CE
:1014E00006C06744B9B2208800F0D2FBA07A10B1E0
:1014F000607A00B9AFE7A188A1F1080000EBD071D4
:10150000228802EB61011FFA81F9E188A1F1100044
:1015100000EBD071628802EB61011FFA81FA607AF8
:10152000082808D1002010233C225146009048464C
:1015300000F090FC10E0607A20280DD0677A202F10
:1015400009DB7E2F07DC002010233A46514600902D
:10155000484600F07FFC00BF4FF6FF70034908804B
:101560001F200349088000BF75E7000064000020C9
:10157000660000202DE9F84F04460E4690461D46B1
:101580004FF00009CA464848A0F800804748068046
:101590000CB9BDE8F88F00966788B4F806C06744B8
:1015A000BBB22788B4F804C06744BAB26188208807
:1015B00000F0C4FB00952788B4F804C06744BAB2B1
:1015C00063881946208800F063FB00956788B4F8AB
:1015D00006C06744BBB222886188104600F058FB01
:1015E00000956788B4F806C06744BBB22788B4F892
:1015F00004C06744BAB227886744B8B2618800F073
:1016000047FB00956788B4F806C06744BBB22788DB
:10161000B4F804C06744BAB26788B4F806C0674437
:10162000B9B2208800F034FBA07A10B1207A00B95A
:10163000AFE7A188A1F1080000EBD071228802EB8E
:1016400061011FFA81F9E188A1F1100000EBD0716E
:10165000628802EB61011FFA81FA207A082808D11A
:10166000002010233C2251460090484600F0F2FB37
:1016700010E0207A20280DD0277A202F09DB7E2F3A
:1016800007DC002010233A4651460090484600F0FF
:10169000E1FB00BF4FF6FF70034908801F2003499C
:1016A000088000BF75E7000064000020660000208D
:1016B00010B5012000F06AF8012809D10648006839
:1016C000012805D1054908700121054801F095FE62
:1016D000012000F055F810BD00012142C200002099
:1016E000000C004010B5042000F050F8012809D18A
:1016F0000648006830B902200549087001210548F4
:1017000001F07BFE042000F03BF810BD08012342ED
:10171000C2000020000C004010B5082000F036F890
:10172000012809D10648006830B90320054908702E
:101730000121054801F061FE082000F021F810BDEC
:101740000C012342C2000020000C004010B5102004
:1017500000F01CF8012809D10648006830B90420BF
:10176000054908700121054801F047FE102000F0EE
:1017700007F810BD10012342C2000020000C0040F9
:101780000149086070470000140401400146002030
:101790000022074B1B6803EA0102054B14331B6848
:1017A0000B4013B10AB1012000E000207047000097
:1017B00000040140002123498279002A3AD00A46D8
:1017C000126803689A430B461A600A1D1268036880
:1017D0009A430B1D1A60027911440A6803681A4380
:1017E0000A60184A0832126803689A43154B083396
:1017F0001A601A1D126803689A43124B0C331A6060
:101800004279102A0ED11A1F126803681A430D4B31
:1018100008331A601A1D126803681A43094B0C3307
:101820001A600DE00749427911440A6803681A43B7
:101830000A6005E0027911440A6803689A430A6065
:10184000704700000004014051B18200A2F1C04283
:10185000126842F001038200A2F1C042136009E065
:101860008200A2F1C0421268034B1A408300A3F128
:10187000C0431A6070470000FEFF0F00D0E901125C
:101880001143C268114302691143426911438269DD
:101890001143C2691143026A1143426A1143826AC9
:1018A0001143C26A1143026B114302689200A2F114
:1018B000C0421160816808290BD101688900A1F13B
:1018C000C041096841F0400201688900A1F1C041AE
:1018D0000A60416B0968426B526841EA0211426B2F
:1018E000926841EA0221426B928941EA0241426BCD
:1018F000128A41EA0251426B127D41EA0261426B57
:10190000926911430268521C9200A2F1C042116018
:10191000C16AB1F5804F1BD1816B0968826B526837
:1019200041EA0211826B926841EA0221826B128ABB
:1019300041EA0251826B127D41EA0261826B926937
:10194000114302689200A2F1C042C2F8041107E0FC
:101950006FF0704201688900A1F1C041C1F8042113
:101960007047000030B500228B071C0F0F2303FACD
:1019700004F20B4B8C1053F824309343084C8D1019
:1019800044F8253023468C1053F824308C07240F5C
:1019900000FA04F42343024C8D1044F8253030BD86
:1019A000080001402DE9F0410246002500260020F4
:1019B00000230024002791F803C00CF00F0591F8D4
:1019C00003C00CF0100CBCF1000F03D091F802C062
:1019D0004CEA050591F800C0BCF1000F31D0146845
:1019E00000202BE04FF0010C0CFA00F3B1F800C01E
:1019F0000CEA03069E4220D183004FF00F0C0CFA34
:101A000003F7BC4305FA03FC4CEA040491F803C055
:101A1000BCF1280F06D14FF0010C0CFA00FCC2F803
:101A200014C00AE091F803C0BCF1480F05D14FF093
:101A3000010C0CFA00FCC2F810C0401C0828D1D3DD
:101A40001460B1F800C0BCF1FF0F34DD5468002011
:101A50002EE000F1080C4FF0010808FA0CF3B1F881
:101A600000C00CEA03069E4221D183004FF00F0C08
:101A70000CFA03F7BC4305FA03FC4CEA040491F8A2
:101A800003C0BCF1280F05D100F1080C08FA0CF8CE
:101A9000C2F8148091F803C0BCF1480F07D100F1DF
:101AA000080C4FF0010808FA0CF8C2F81080401C2E
:101AB0000828CED35460BDE8F081416170470161D0
:101AC000704700003EB5002400251F2000F08EF86E
:101AD0004FF6FF70204908801F202049088000BF72
:101AE00036E0002530E0022000FB04501C4951F88C
:101AF0003000C4EB04121201193291B2C5EB051289
:101B000012011932009090B2C8231A4600F080FAF0
:101B1000022000FB0450124901EBC000406818216C
:101B20000022CDE900210290C4EB04121201E1323F
:101B300091B2C5EB05121201193290B21E23C822D0
:101B400002F03AFF681CC5B2022DCCDB601CC4B2A7
:101B5000022CC6DB3EBD00006400002066000020B1
:101B60009C01002008B50121082000F0BBFE4020A8
:101B7000ADF8000003208DF8020010208DF803005E
:101B800069460848FFF70EFF8020ADF8000069465F
:101B90000448FFF707FF0120034908600349C1F823
:101BA0009C0108BD000C0140988121420080214227
:101BB00008B50121442000F095FE0120ADF8000099
:101BC00028208DF8030069460648FFF7EBFE1C202D
:101BD000ADF8000048208DF8030069460248FFF781
:101BE000E1FE08BD000801400018014070B506463E
:101BF0000F484088401E83B20D480088401E82B2C4
:101C00000021084600F0D3F800240CE0002504E091
:101C1000304600F08BFA681C85B205484088A8421F
:101C2000F6DC601C84B202480088A042EEDC70BD85
:101C30006800002010B504460D4884715CB900218D
:101C4000362000F063FA4FF44870094948804FF499
:101C5000F07008800AE06821362000F057FA4FF44F
:101C6000F070034948804FF44870088010BD0000B0
:101C70006800002070B504460D4616462B462246E5
:101C80002946204600F093F8304600F04FFA70BD28
:101C90002DE9FF4F84B081468A460020029083469A
:101CA0000698A0EB09050798A0EB0A06CDF804906A
:101CB000CDF800A0002D01DD012705E00DB90027BA
:101CC00002E04FF0FF376D42002E02DD4FF00108B9
:101CD00006E016B94FF0000802E04FF0FF387642F8
:101CE000B54201DD2C4600E03446002003901EE0A2
:101CF000009A91B2019A90B2119AFFF7BBFF029835
:101D000028440290B3440298A04205DD0298001BCB
:101D10000290019838440190A34504DDABEB040B1D
:101D20000098404400900398401C80B20390611CCE
:101D300003988842DCDD08B0BDE8F08F2DE9F04360
:101D400004460D4616461F46DDF81C80B44201DCF1
:101D5000BD4201DDBDE8F0833B46324629462046C0
:101D600000F025F8301B401C84B2781B401C85B263
:101D70000BE0A94602E0404600F0D8F9B9F10000B6
:101D8000A9F101011FFA81F9F5D1201EA4F1010189
:101D90008CB2EED100BFDDE710B50246012000E0B5
:101DA00050430B1EA1F10104E1B2F9D110BD70B591
:101DB00004460D462A2000F0A3F92646E11704EB5D
:101DC0001161C1F30F2000F0ABF9E11704EB1161D1
:101DD0000912A4EB012188B200F0A2F91646D1172E
:101DE00002EB1161C1F30F2000F09AF91646D117EA
:101DF00002EB11610912A2EB012188B200F090F907
:101E00002B2000F07DF92E46E91705EB1161C1F397
:101E10000F2000F085F9E91705EB11610912A5EB18
:101E2000012188B200F07CF91E46D91703EB11613D
:101E3000C1F30F2000F074F91E46D91703EB1161AE
:101E40000912A3EB012188B200F06AF92C2000F0FE
:101E500057F970BD2DE9F84F80460E4617461C46CF
:101E6000B3462046E31704EB5373DB1021464FEAD9
:101E7000E47C04EB5C7C4FEAEC0CA4EBCC0CBCF1F6
:101E8000000F02D04FF0010C01E04FF0000C634452
:101E9000224604EBD27C4FEA6C0C03FB0CF3DBB262
:101EA0000093A7F12000C7B2002556E00C2C07D103
:101EB00007EB47002B4901EB800010F8059013E079
:101EC000102C05D1284800EB071010F805900BE006
:101ED000182C07D107EBC700244901EB800010F84C
:101EE000059001E0BDE8F88F4FF0000A2FE009F0FF
:101EF000800030B11E48028831464046FFF7BAFEE6
:101F000007E00A9828B91B48028831464046FFF787
:101F1000B1FE4FEA49604FEA1069701C86B216485C
:101F20004088B04200DCDDE7A6EB0B00A0420AD1FE
:101F30005E4608F101001FFA80F80F48008840450E
:101F400000DCCFE706E00AF1010000F0FF0ABAF179
:101F5000080FCCDB00BF681CC5B200988542A5DB2A
:101F600000BFBFE76E690008E26D0008D273000889
:101F70006400002066000020680000202DE9FF4F6B
:101F800081B0074691461E460E9D4FF0000A002480
:101F900039E0301B401EC1B20A20FFF7FDFEB9FB3D
:101FA000F0F00A21B0FBF1F201FB1208BAF1000FC8
:101FB00016D1701EA04213DDB8F1000F0ED1002023
:101FC000AB4605EBDB71491001FB0471009088B250
:101FD0002B4620220299FFF73DFF12E04FF0010A45
:101FE0000020AB4605EBDB71491001FB047100904A
:101FF00088B208F13001CAB22B460299FFF72AFFD6
:1020000000BF601CC4B2B442C3DB05B0BDE8F08FB2
:102010002DE9F84F06460F4614461D464FF0000ABC
:10202000D346002000907819401E83B23019401E1C
:1020300082B239463046FFF7BAFE04FB05F0400095
:102040000090D04625E04FF000091CE00BF10101A3
:102050000A9810F801A04FF6FF7000EA0A2A0A98C1
:1020600010F80B0040EA0A0A07EB080291B206EBEF
:10207000090290B25246FFF7FDFD0BF1020B09F188
:1020800001001FFA80F9A145E0DB08F101001FFA09
:1020900080F8A845D7DBBDE8F88F2DE9F84704465E
:1020A0000D4690469946DDE9096704F0FF0A08EB02
:1020B00004001FFA80F809EB05001FFA80F916E00A
:1020C000444502DB5446A81985B24D4500DB14E0B7
:1020D000002000903A78334629462046FFF7BAFEA2
:1020E000304606EBD07104EB61018CB27F1C38786E
:1020F0007E2802DC38782028E2DA00BFBDE8F887C5
:102100000149088070470000FE07006C00B50346D7
:102110000A461846FFF7F4FF104600F001F800BD2C
:1021200001490880704700000008006C01490880E0
:10213000704700000008006C08B50121482000F03D
:10214000D1FB2020ADF8000010208DF80300032003
:102150008DF8020069460948FFF724FC2021074852
:10216000FFF7ADFC2020ADF8000069460448FFF7FA
:1021700019FC20210248FFF7A2FC08BD000C014019
:102180000018014010B50446412C24D1082108460E
:10219000FFF702F83D21112001F03EFB86211720B8
:1021A00001F03AFB7F21262001F036FB1E212D2075
:1021B00001F032FB00212C2001F02EFB8D212A2082
:1021C00001F02AFB3E212B2001F026FB022002F029
:1021D00027F900F0B3F810BD00BFFEE70EB50121EE
:1021E000084600F07FFB02210420FFF7BBFB032120
:1021F0000420FFF7B7FB04210846FFF7B3FB0021DB
:102200000846FFF7AFFB06208DF8080002208DF886
:10221000090003208DF80A0001208DF80B0002A8A8
:1022200000F04AF808208DF8080002208DF8090017
:102230008DF80A0001208DF80B0002A800F03CF890
:1022400009208DF8080002208DF8090001208DF882
:102250000A008DF80B0002A800F02EF80A208DF875
:10226000080002208DF8090000208DF80A000120E6
:102270008DF80B0002A800F01FF80120009000204C
:102280008DF8040008208DF8050001208DF8060067
:102290006846FFF78FFA1C20009000208DF804009C
:1022A0000C208DF8050001208DF806006846FFF728
:1022B00081FA0EBD7047000070B5002100230F2287
:1022C000C47804B3154C246804F4E064C4F5E064F5
:1022D000210AC1F10403CA40447804FA03F1847866
:1022E0001440214309010E4C0678A155047804F0EE
:1022F0001F050124AC4005786D11AD0005F1E02506
:10230000C5F8004109E0047804F01F050124AC4041
:10231000044D0678761145F8264070BD0CED00E0BE
:1023200000E400E080E100E002490143024A11605C
:10233000704700000000FA050CED00E010B5142015
:1023400000F04AFB044604F0030018B903211420EE
:1023500000F029FC10BDF0B587B005460027082124
:102360000846FEF719FF00210D2001F055FA8021E3
:102370000E20FEF711FF93208DF8080020208DF825
:10238000090001A802AB022202A900900C2000F073
:1023900051F8064686B9002407E002A8005D2855DA
:1023A00002A8005D4740601CC4B2042CF5DB02A803
:1023B000005DB84200D0022680210E2000F0F3FB21
:1023C000304607B0F0BD2DE9F04387B006460F4612
:1023D000904699468DF808608DF80970002406E053
:1023E00018F8041002AAA01C1154601CC4B2062CD8
:1023F000F6DB002407E019F8041002AA04F1080033
:102400001154601CC4B2062CF5DB01A802AB0C22EF
:1024100002A900900E2000F00DF805462DB9082005
:1024200000F0DAFA00F0080000B90225284607B0EB
:10243000BDE8F0832DE9FE4F0646884691469A4650
:10244000DDF830B0022002900020019000900C2EA8
:1024500006D00E2E09D1122001901020009005E028
:10246000772001903020009000E000BF00BF01986D
:1024700040F08001022001F0CFF980210420FEF716
:102480008BFE0021012001F0C7F980210A2000F015
:102490008AFB002505E018F80510092001F0BCF9B9
:1024A0006D1C4D45F7D33146012001F0B5F90C2ED6
:1024B00003D180210D2000F076FB4FF47A7500BF28
:1024C000042000F089FA04466D1E35B104F00100C5
:1024D00018B9009820400028F2D080210D20FEF786
:1024E0005BFE95B3062000F077FA00F01B0068BB96
:1024F000002002900198204000F0010008B1012066
:1025000002900C2E24D10A2000F066FA04460C201A
:1025100000F062FA00F007072FB1601E07EBC00061
:10252000CBF8000002E0E000CBF8000004B9012481
:10253000122C00DD1224002505E0092000F04CFAE1
:102540000AF805006D1CA542F7D301E002200290B5
:1025500080210C2000F027FB0021012001F05CF914
:102560000298BDE8FE8FF0B587B005460E463020D4
:102570008DF808008DF809500DF10A02022102A819
:10258000FEF778FD01A802AB042202A900900C20FE
:10259000FFF750FF074667B90198902809D100243A
:1025A00004E002A8005D3055601CC4B2102CF8DBBA
:1025B00000E00227384607B0F0BD70B588B0054688
:1025C0000C4608210846FEF7E7FD07210D2001F023
:1025D00023F90321142000F0E6FA8DF80C5002A82C
:1025E00003AB012203A900900C20FFF723FF06464E
:1025F0004EB90298102806D19DF80C0020709DF865
:102600000D00607000E00226304608B070BD00008A
:1026100010B501211D48FFF752FA012001F000FF1B
:1026200001211A48FFF749FA012001F0F9FE0121C2
:102630001648FFF744FA012001F0F2FE0F210120B5
:1026400001F0EAF800BF012000F0C6F900F0100028
:102650000028F8D1012001F0E3FE3D21112001F016
:10266000DBF81E212D2001F0D7F800212C2001F0ED
:10267000D3F88D212A2001F0CFF83E212B2001F044
:10268000CBF84021152001F0C7F810BD000801402B
:1026900070B588B0054693208DF80C0070208DF839
:1026A0000D0000208DF8120000240BE0295D03AA24
:1026B000A01C11549DF81200295D48408DF81200AD
:1026C000601CC4B2042CF1DB0DF11302072103A836
:1026D000FEF7D0FC08210846FEF75EFD02A803AB1A
:1026E000092203A900900C20FFF7A4FE06463046FD
:1026F00008B070BDF0B587B006460F46A0208DF833
:1027000008008DF809600DF10A02022102A8FEF707
:10271000B1FC01A802AB042202A900900C20FFF733
:1027200089FE054645B90198042805D19DF80800A1
:1027300000F00F000A2800D0022535BB10223946D0
:1027400002A8FDF789FD002404E0385D02A90855C0
:10275000601CC4B2102CF8DB06AA102102A8FEF7F8
:1027600089FC01A802AB122202A900900C20FFF7FD
:1027700061FE054645B90198042805D19DF8080079
:1027800000F00F000A2800D00225284607B0F0BD4F
:1027900070B50446002536490978364A127881EA30
:1027A0000200FEF707FD0546202D3ED005DC4DB1A9
:1027B000082D2ED00D2D45D123E0802D04D0812D64
:1027C00040D10FE0002070BD2948007880F0010062
:1027D000274908700978274A127881EA020000F038
:1027E00063FA42E02348007880F001002149087034
:1027F0001F4909781F4A127881EA020000F054FA52
:1028000033E000201C49097860541B490870FF2000
:10281000D9E71948007838B1002117480078401EE0
:10282000C0B2154A107021541FE0202112480278CE
:102830000078401C104B1870A154002019460978EC
:10284000605412E0002D0FDD0B4801780078401C29
:10285000094A1070655400201146097860541046EA
:102860000078401E205CAEE700BF00BF00BFAAE7B3
:1028700035040020360400203704002010B500F095
:10288000C5F801210648FFF71AF910210448FFF79F
:1028900016F9FFF7BDFE4120FFF774FC10BD0000E4
:1028A0000008014029B1064A52690243044B5A61AB
:1028B00004E0034A52698243014B5A6170470000A9
:1028C0000010024029B1064AD2690243044BDA6182
:1028D00004E0034AD2698243014BDA617047000089
:1028E0000010024029B1064A92690243044B9A61E2
:1028F00004E0034A92698243014B9A6170470000E9
:102900000010024030B500210022002400232D4D8C
:102910006D6805F00C0121B1042905D0082923D1E7
:1029200005E0294D056022E0274D05601FE0254D9B
:102930006D6805F47012234D6D6805F4803402252E
:1029400005EB92421CB9214D554305600BE01D4D2E
:102950006D6805F400351DB11C4D5543056002E05E
:10296000194D5543056002E0174D056000BF00BFDB
:10297000144D6D6805F0F0010909154D6B5C056893
:10298000DD4045600F4D6D6805F4E061090A104DAA
:102990006B5C4568DD4085600A4D6D6805F46051EB
:1029A000C90A0B4D6B5C4568DD40C560054D6D681F
:1029B00005F44041890B074D6B5CC568B5FBF3F529
:1029C000056130BD0010024000127A0000093D0090
:1029D0003B0000204B00002070B504467E2000EA3A
:1029E000440040F0800510210748FFF766F82846AC
:1029F00000F0BEF800F0A2F8064610210248FFF7EA
:102A00005EF8304670BD00000008014000B587B098
:102A1000012141F20400FFF765FF2020ADF8180006
:102A200018208DF81B0003208DF81A0006A92548F0
:102A3000FEF7B8FF4020ADF8180004208DF81B0009
:102A400006A92048FEF7AEFF8020ADF81800182038
:102A50008DF81B0003208DF81A0006A91948FEF70F
:102A6000A1FF1020ADF818008DF81B0003208DF891
:102A70001A0006A91348FEF795FF0020ADF80400E0
:102A80004FF48270ADF806000020ADF80800ADF8F4
:102A90000A00ADF80C004FF40070ADF80E001820DD
:102AA000ADF810000020ADF812000720ADF81400BA
:102AB00001A9054800F024F80121034800F006F8B8
:102AC00007B000BD000801400030014021B102887C
:102AD00042F04002028004E002884FF6BF731A40C1
:102AE000028070470246002013890B400BB1012081
:102AF00000E0002070470146888970478181704757
:102B000010B50022028802F441520B884C882343FE
:102B10008C882343CC8823430C8923434C8923434B
:102B20008C892343CC8923431A430280838B4FF241
:102B3000FF74234083830B8A038210BD10B500BF4E
:102B400002210A48FFF7CEFF0028F9D0FF210748ED
:102B5000FFF7D4FF00BF01210448FFF7C3FF00289F
:102B6000F9D00248FFF7C7FFC0B210BD00300140E6
:102B700010B5044600BF02210948FFF7B3FF002843
:102B8000F9D021460648FFF7B9FF00BF01210448EC
:102B9000FFF7A8FF0028F9D00148FFF7ACFF10BDF0
:102BA00000300140704770B505460C462846FFF7D7
:102BB00013FF064646EA0401284600F02DFE70BDCC
:102BC00010B500F001F810BD0CB500200190009088
:102BD0003348006840F480303149086000BF304815
:102BE000006800F4003000900198401C01900098AB
:102BF00018B90198B0F5A06FF1D12948006800F428
:102C0000003010B10120009001E0002000900098F9
:102C1000012843D12348006840F010002149086092
:102C20000846006820F0030008600846006840F08D
:102C3000020008601A484068194948600846406820
:102C400048600846406840F4806048600846406834
:102C500020F47C1048600846406840F4E810486062
:102C60000846006840F08070086000BF0C480068AB
:102C700000F000700028F9D00948406820F00300F7
:102C8000074948600846406840F00200486000BFBD
:102C90000348406800F00C000828F9D10CBD000082
:102CA000001002400020024038B5044647F6EF33DA
:102CB00000224FF6FF7147F67C500094FEF7F6FABB
:102CC00038BD042808D14FF0E021096941F0040122
:102CD0004FF0E022116107E04FF0E021096921F097
:102CE00004014FF0E0221161704710B502F0A8FB1B
:102CF00003F0E8FA02F0B4FB10BD000070B5044622
:102D00006FF00400FFF7DDFFE11704EB5171C1F331
:102D1000C7010D4A1170E11704EB5171CD104FF44A
:102D20007A7045430120094908804FF0E02000698E
:102D300040F002004FF0E02108610846456100695B
:102D400040F00100086170BDCA000020CC000020E6
:102D500010B51348006840F00100114908600846AA
:102D60004068104908400E494860084600680E490E
:102D700008400B4908600846006820F4802008607D
:102D80000846406820F4FE0048604FF41F00886049
:102D9000FFF716FF4FF000600449086010BD000007
:102DA000001002400000FFF8FFFFF6FE08ED00E013
:102DB00000B59DB001210802FFF774FD01200790C6
:102DC000002008900F20099000200A900B900C9092
:102DD0000D90152000900190052002900020039096
:102DE00004900590069006200E9000200F90109001
:102DF00010201190002012901490139015901690AE
:102E00004FF480501790002018904FF48040199094
:102E100000201A9007A81B90CDF870D00EA8FEF7DE
:102E20002DFD01210620FEF70FFD1DB000BD0000A5
:102E300008B501214FF4B470FFF754FD4CF2337024
:102E4000ADF8000018208DF8030003208DF8020073
:102E500069461848FEF7A6FD4FF68070ADF80000F1
:102E600018208DF8030003208DF8020069461248EF
:102E7000FEF798FD41F20100ADF8000018208DF832
:102E8000030003208DF8020069460C48FEF78AFD16
:102E90000120ADF8000010208DF8030003208DF80C
:102EA000020069460648FEF77DFD012005490860DD
:102EB00008BD00000014014000180140002001403E
:102EC000000C01408081214210B5FFF7B1FFFFF7F0
:102ED0006FFF322001F06EFAD320FFF711F9EF48AF
:102EE0000088EF498880ED4800888880EB4800889A
:102EF0008880084680884FF6FF7101EA0020E84983
:102F0000888008468088E54909880843E449888024
:102F100008468188E3A000F097FCFF20FFF7F0F857
:102F2000FF20FFF7FDF89820FFF7FAF80620FFF7DB
:102F3000F7F8BA20FFF7E4F86020FFF7F1F8BC20BB
:102F4000FFF7DEF80320FFF7EBF80E20FFF7E8F8B5
:102F50000320FFF7E5F86320FFF7E2F80120FFF711
:102F6000DFF80120FFF7DCF81B20FFF7D9F812206B
:102F7000FFF7D6F86F20FFF7D3F80020FFF7D0F85F
:102F80000020FFF7CDF80020FFF7CAF80120FFF777
:102F9000C7F80120FFF7C4F80320FFF7C1F80220AB
:102FA000FFF7BEF8FF20FFF7BBF8F220FFF7B8F8F5
:102FB0000120FFF7B5F80020FFF7B2F8C020FFF7B7
:102FC000AFF8BD20FFF79CF80220FFF7A9F8132007
:102FD000FFF7A6F84520FFF7A3F86720FFF7A0F852
:102FE0004520FFF79DF86720FFF79AF80120FFF7CB
:102FF00097F82320FFF794F8BE20FFF781F801200F
:10300000FFF78EF82220FFF78BF82220FFF788F8D1
:10301000DC20FFF785F8BA20FFF782F86720FFF77A
:103020007FF82220FFF77CF82220FFF779F8222092
:10303000FFF776F8C720FFF763F86620FFF770F810
:10304000ED20FFF75DF87F20FFF76AF80F20FFF70C
:1030500067F80020FFF764F8C020FFF751F803205D
:10306000FFF75EF80B20FFF75BF80020FFF758F83A
:10307000F520FFF745F82020FFF752F84320FFF72F
:103080004FF80020FFF74CF8EE20FFF739F80A2040
:10309000FFF746F81B20FFF743F85F20FFF740F8E3
:1030A0004020FFF73DF82820FFF73AF83820FFF7D7
:1030B00037F80220FFF734F82B20FFF731F85020C3
:1030C000FFF72EF80020FFF72BF88020FFF728F8F5
:1030D000FC20FFF715F80820FFF722F8DF20FFF7A4
:1030E0000FF80020FFF71CF80020FFF719F8002068
:1030F000FFF716F80020FFF713F80020FFF710F88D
:103100002020FFF70DF8F320FEF7FAFF7420FFF7F9
:1031100007F8B420FEF7F4FF0220FFF701F80220C1
:10312000FEF7FEFF0220FEF7FBFFF720FEF7E8FFA9
:103130008220FEF7F5FFB120FEF7E2FF0020FEF748
:10314000EFFF1320FEF7ECFF1320FEF7E9FFF2205C
:10315000FEF7D6FF4120FEF7E3FF0420FEF7E0FF75
:103160004120FEF7DDFF2820FEF7DAFFC120FEF741
:10317000C7FF1720FEF7D4FF7820FEF7D1FF7B2092
:10318000FEF7CEFF2020FEF7CBFFE020FEF7B8FFD2
:103190000020FEF7C5FF0220FEF7C2FF0C20FEF75D
:1031A000BFFF0F20FEF7BCFF1120FEF7B9FF1C2068
:1031B000FEF7B6FFC820FEF7B3FF0720FEF7B0FF0B
:1031C0000320FEF7ADFF0820FEF7AAFF0320FEF75D
:1031D000A7FF0D20FEF7A4FF0C20FEF7A1FF312072
:1031E000FEF79EFF2C20FEF79BFF0020FEF798FFC6
:1031F000E120FEF785FF0020FEF792FF0220FEF798
:103200008FFF0820FEF78CFF0E20FEF789FF1220AB
:10321000FEF786FF1720FEF783FF7C20FEF780FF76
:103220000A20FEF77DFF0320FEF77AFF0920FEF754
:1032300077FF0620FEF774FF0C20FEF771FF0C20CD
:10324000FEF76EFF2E20FEF76BFF2A20FEF768FFC9
:103250000020FEF765FF3520FEF752FF0020FEF745
:103260005FFF3620FEF74CFFC020FEF759FF3A20E3
:10327000FEF746FF5520FEF753FF1120FEF740FFF3
:10328000782001F097F82920FEF73AFF0020FEF79A
:10329000D1FC4FF6FF70FEF7A9FC10BD0008006CD2
:1032A00068000020204C43442049443A25780D0A08
:1032B0000000000010B50121164800F0AAF818B36C
:1032C00015480088401C1449088008460088642876
:1032D00007D112480088401C1049088000200E4980
:1032E00008800E4800883C2807D10D480088401C03
:1032F0000B490880002009490880094800883C28BB
:1033000002D10020064908800121024800F072F82D
:1033100010BD000000080040C4000020C6000020CE
:10332000C80000207FB505460C4601210420FFF7A8
:10333000C9FAADF80850ADF804400020ADF80A0015
:10334000ADF8060001A9104800F07EF801221146F0
:103350000D4800F06FF801210B4800F04BF81E20DB
:103360008DF8000002208DF8010003208DF8020086
:1033700001208DF803006846FEF79EFF01210248F8
:1033800000F03BF87FBD00000008004010B50121AF
:10339000124800F03EF8E0B11148007890B11148B1
:1033A000006801280AD01048006838B10E48001F94
:1033B000006818B10C480838006818B90848007847
:1033C0000A4908600020064908700021084800F0FA
:1033D00014F80121014800F00DF810BD000C004068
:1033E000C200002000012142100123422C000020D5
:1033F00000040040CA430282704721B1028842F0B3
:103400000102028004E002884FF6FE731A40028037
:10341000704730B50246002000230024158A05EAD3
:103420000103958905EA010413B10CB1012000E004
:10343000002030BD1AB183890B43838102E0838968
:103440008B43838170470000002202881D4B984205
:103450000ED01D4B98420BD0B0F1804F08D01B4BC3
:10346000984205D01A4B984202D01A4B984204D188
:103470004FF68F731A404B881A43174B984207D068
:10348000164B984204D04FF6FF431A40CB881A439C
:1034900002808B8883850B8803850A4B98420BD06A
:1034A000094B984208D00E4B984205D00D4B9842DC
:1034B00002D00D4B984201D10B7A038601238382FF
:1034C00070470000002C014000340140000400401F
:1034D00000080040000C00400010004000140040B4
:1034E000004001400044014000480140704710B5D1
:1034F000FDF7A2FA002010BD10B504460020FDF72C
:1035000049FB10BD10B501F049FD40F225511E48A0
:1035100000F0BAF810B31C4800F072F9C4B21B48AE
:10352000008800F40040C8B91848008800F48040C2
:1035300060B10A2C03D000201449088020E0134811
:10354000008840F400401149088019E00D2C06D194
:103550000E48008840F480400C49088010E00B4879
:103560000088C0F30D000A490C5408480088401C2C
:103570000649088008460088C72801DD0020088029
:1035800001F01CFD10BD000000380140D0000020FB
:103590000605002010B586B0044601210420FFF77F
:1035A000A1F901218803FFF79DF94FF40070ADF8F0
:1035B000140003208DF8160018208DF8170005A9B7
:1035C0001E48FEF7EFF94FF48060ADF814000420B8
:1035D0008DF8170005A91948FEF7E4F901940020B9
:1035E000ADF80800ADF80A00ADF80C00ADF8100019
:1035F0000C20ADF80E0001A9114800F095F801214A
:103600000F4800F028F840210D4800F01BF8012277
:1036100040F225510A4800F061F825208DF800009D
:1036200003208DF801008DF8020001208DF80300C1
:103630006846FEF741FE06B010BD000000080140DC
:103640000038014001F40072B2F5007F00D100BFE4
:10365000CA430280704721B1828942F400528281BC
:1036600004E082894DF6FF731A408281704702465A
:103670000020B1F5007F00D100BF13880B400BB1D3
:10368000012000E00020704770B5024600240023AE
:103690000025002040F66A16B14200D100BFC1F3F8
:1036A000421501F01F03012606FA03F3012D02D192
:1036B0009689334006E0022D02D1168A334001E09C
:1036C000968A33400C12012606FA04F41688344018
:1036D00013B10CB1012000E0002070BDF0B503462D
:1036E000002400260025002040F66A17B94200D1C8
:1036F00000BF1846C1F3421401F01F06012707FA64
:1037000006F5012C01D10C3004E0022C01D110305F
:1037100000E014301AB107682F43076002E0076821
:10372000AF430760F0BD00002DE9F04786B00546C5
:103730000E460024A24600BFA1460027B08900B172
:1037400000BF2F462C8A4CF6FF700440F0880443DB
:103750002C82AC894EF6F3100440B08831890843BE
:10376000718908430443AC81AC8A4FF6FF400440A2
:10377000B0890443AC8201A8FFF7C4F81F48874210
:1037800002D1DDF810A001E0DDF80CA0A88900F45A
:10379000004040B10AEBCA0000EB0A103168490052
:1037A000B0FBF1F807E00AEBCA0000EB0A10316841
:1037B0008900B0FBF1F86420B8FBF0F004012009A7
:1037C000642101FB1089A88900F4004040B1322037
:1037D00000EBC900B0FBF1F000F00700044308E083
:1037E000322000EB09106421B0FBF1F000F00F0073
:1037F00004432C8106B0BDE8F0870000003801408A
:1038000001468888C0F308007047C1F3080282802F
:10381000704700BFFEE7000070B504460D467E20ED
:1038200000EA440610210748FEF747F93046FFF743
:103830009FF92846FFF79CF910210248FEF73FF94F
:1038400070BD0000000801400FB4054B10B503A97E
:10385000044A029800F05CF810BC5DF814FB00000C
:10386000D5460008640400200FB4084B10B504A925
:1038700002AA039800F04CF8044602A9002000F0C8
:10388000F3FA204610BC5DF814FB0000693E000806
:10389000014609B900207047C8B220B1C8B20E4A2B
:1038A000105C401CF7E701F47F4028B10A48C1F3DF
:1038B0000722805C0930EEE701F47F0028B106485A
:1038C000C1F30742805C1130E5E7034800EB11606B
:1038D00000781930DFE7000090B2000802E008C865
:1038E000121F08C1002AFAD170477047002001E07A
:1038F00001C1121F002AFBD170470000034908686C
:10390000884201D0012070470020FCE778010020A8
:103910002DE9FF4F8DB00F460546002606E025280D
:103920000BD0DDE90F1290476D1C761C287800281B
:10393000F5D111B03046BDE8F08F0024A246A14673
:103940000122EC4900E0044315F8013F203B02FA54
:1039500003F00842F7D128782A2810D06FF02F0200
:103960002878A0F13001092914D80AEB8A0102EB6A
:10397000410144F0020400EB010A6D1CF0E701CFA5
:103980005FEA000A03D544F40054CAF1000A44F087
:1039900002046D1C28782E2817D115F8010F44F069
:1039A00004042A280ED06FF02F022878A0F13001ED
:1039B00009290AD809EB890102EB410100EB010951
:1039C0006D1CF2E757F8049B6D1C28786C280FD00B
:1039D00006DC4C2817D068280DD06A2814D104E0E2
:1039E000742810D07A280FD10DE044F400140AE0B6
:1039F00044F4801401E044F440146978814202D117
:103A000004F580146D1C6D1C2A786E2A1FD00CDC06
:103A1000632A31D004DC002A8BD0582A11D1A3E0CC
:103A2000642A68D0692A0CD165E0732A2ED004DCA0
:103A30006F2A73D0702A04D19BE0752A6FD0782A40
:103A40006ED01046DDE90F129047761C50E1C4F3AA
:103A50000250022806D0032809D0042801CF09D03B
:103A6000066045E101CFF117C0E9006140E101CFF7
:103A700006803DE106703BE117F8040B8DF800006D
:103A800000208DF80100EB46012003E057F804BB4D
:103A90004FF0FF3061074FF0000102D40DE008F154
:103AA0000101884649450FDA8045F8DB1BF808100C
:103AB0000029F4D108E008F1010188468142FADBCF
:103AC0001BF808100029F6D1DDE90F23AAEB080046
:103AD0008146214600F036F9304400EB080604E048
:103AE000DDE90F121BF8010B9047B8F10108F7D27E
:103AF00021464846F7E00A21C4F302534FF0000B79
:103B00000891022B04D001CFC117032B09D00AE082
:103B1000FF1D27F00707F7E8020108E032E01FE089
:103B200020E000B2C117042B01D140B2C117031E1F
:103B300071F1000307DA4FF0000CD0EB0C006CEBD6
:103B400001012D2302E0230504D52B238DF8243019
:103B5000012303E0E30701D02023F7E7984658E06C
:103B60000A2110E010210EE010204FF0000B089009
:103B70000CE010214FF0000B44F004044FF0080952
:103B8000089103E008214FF0000B0891C4F30253A1
:103B9000022B04D001CF0021032B06D006E0FF1D2D
:103BA00027F00707F7E8020103E080B2042B00D1F9
:103BB000C0B24FF0000823072BD5702A07D0DDF8DC
:103BC00020C08CF0100C5CEA0B0C05D00EE04023FA
:103BD0008DF82430012308E050EA010306D0302399
:103BE0008DF824308DF8252002239846DDF820C07A
:103BF0008CF0080C5CEA0B0C0BD150EA010301D1EC
:103C0000630706D530238DF824304FF00108A9F161
:103C10000109582A04D038A20B9208AA0A920BE094
:103C20003AA2F9E75B46089AFCF746FB0B9B9B5CC4
:103C30000A9A521E0A92137050EA0102F2D10A98AF
:103C4000ADEB000000F1200B600702D524F48034B6
:103C500001E04FF00109D94502DDA9EB0B0000E0BE
:103C6000002000EB0B0141440890AAEB010AE0039D
:103C700006D4DDE90F232146504600F063F80644E0
:103C80004FF0000908E009A911F80900DDE90F1259
:103C9000904709F10109761CC145F4DBE0030CD51E
:103CA000DDE90F232146504600F04CF8064404E0BD
:103CB000DDE90F1230209047761C0899481E0890C5
:103CC0000029F5DC08E00A980A990078491C0A9155
:103CD000DDE90F129047761CBBF10001ABF1010B3F
:103CE000F1DC21465046DDE90F2300F019F80644C7
:103CF0006D1C1BE60928010030313233343536376C
:103D00003839616263646566000000003031323327
:103D100034353637383941424344454600000000C7
:103D20002DE9F041044600251E461746880404D4B8
:103D300005E039462020B0476D1C641EF9D52846A1
:103D4000BDE8F0812DE9F041044600251E4690466D
:103D5000C80301D5302700E02027880404D505E0FA
:103D600041463846B0476D1C641EF9D52846BDE86B
:103D7000F08100002DE9FC5F04468B4615461E4687
:103D8000DDE90C9ADDE90E7804F114004060006072
:103D900000BF1C346560A660C4F80C90C4F810A085
:103DA0002321D4E9030201F0C9FCD4E9033C6344B4
:103DB0001A1F0F4BD4E9010101F01CFB2060A7760C
:103DC00067760020E061C4F82080C4F82480606138
:103DD00020766065A0651C3C00902346054A21467C
:103DE000019004F1440002F0EFFA0020BDE8FC9FCE
:103DF000D95F0008356200082DE9F04704460E46F9
:103E000017469846DDF8209084F80990607A20F0F3
:103E100001006072E66127620020A062C4F824807D
:103E2000002506E004F1140101EBC50001F08EFB52
:103E30006D1C012DF6DBBDE8F08710B502460020B1
:103E400001460EE002F1140303EBC100D0E9004388
:103E50006360D0E9003423604060006000BF481C0C
:103E600001460129EEDB10BD0A68531C0B6010707F
:103E70007047000070B505460748046808E0A4686C
:103E800029462068FCF701FA08B1207900B900E062
:103E9000F5E700BF204670BDD00100200146064A6C
:103EA000106806E0806802798A4201D0027902B97E
:103EB00000E0F7E700BF7047D001002010B50024F4
:103EC000102000F0FFFE1749086017A0096808607D
:103ED000002014490968087112490968487111489D
:103EE000006810490968C8600E49096888600124A3
:103EF00010E004EB84010F4A02EB81000949012222
:103F00000B68214600F038FA611E0B4A42F8210086
:103F1000601CC4B2094800688442EAD901480068BC
:103F200010BD0000D0010020424F4F4B20484541BA
:103F300044000000D8010020E8480020D4010020FF
:103F40000EB542E04FF0FF312048006801F03BFE23
:103F50004FF0FF311E48006801F078FC4FF6FF700B
:103F6000FDF744FE1BA018214FF4FC622823CDE985
:103F7000002102904FF4F0724FF49671002000F08F
:103F80001BFD1CA018214FF478426423CDE90021C9
:103F900002904FF4F0724FF42F71002000F00CFDEE
:103FA0000B48006801F007FC0DE00120FCF71EFA49
:103FB00000F06CFC20B11448006801F0E7FD03E05C
:103FC000142001F0E3FFF0E700BFBBE7180000207A
:103FD00028000020504C4541534520505554204363
:103FE000415244204F4E2054484520434F4E534F9A
:103FF0004C45000052455455524E20544F205448D1
:104000004520434F56455200240000200EB5FF24A2
:10401000A6480568A6480068A649087044E14FF024
:10402000FF31A548006801F0CEFD4FF0FF31A348F5
:10403000006801F00BFCFDF753F8A048006801F0A0
:10404000BAFBFF2401209E4908702BE1FF2C02D10E
:1040500000F07AFB0446002C7DD199480078E0B14D
:104060004FF6FF704FF42F734FF4F072322100902F
:104070000020FDF763FE93A018211F222823CDE91D
:10408000002102904FF4F0720A21002000F094FC0D
:1040900002F0F8FB00208A4908709348008800F479
:1040A0000040002861D090480078904908700020B6
:1040B0008F4908700CE08F488D490978415C8E4823
:1040C0008B4A127881548A480078401C88490870CD
:1040D00087480078854909788842ECDB00208249CE
:1040E00008808549814A1278885472480078401CBB
:1040F00070490870097801EB8101804A02EB810068
:104100007D49FCF7D0F86B49097801EB81017B4AC6
:1041100002EB8100654901220B686649097800F0CD
:104120002BF9054615B376A018214FF4FC6228231D
:10413000CDE9002102904FF4F0723221002000F00E
:104140003BFC5B480068401C594908604FF6FF7013
:104150004FF42F7300E018E04FF4F072322100901A
:104160000020FDF7EBFD02F08DFB90E069A0182127
:104170004FF478422823CDE9002102904FF4F072E9
:104180003221002000F018FC81E0012C7FD14C4846
:104190000078E0B14FF6FF704FF42F734FF4F072D8
:1041A000322100900020FDF7C9FD5FA018211F22D9
:1041B0002823CDE9002102904FF4F0720A2100205B
:1041C00000F0FAFB02F05EFB00203D490870464813
:1041D000008800F40040002859D043480078434943
:1041E00008700020424908700CE0424840490978B4
:1041F000405C41493E4A127888543D480078401C52
:104200003B4908703A480078384909788842ECDB25
:1042100000203549088000213748344A12788154FB
:10422000FFF728FE0546287918B3284600F026F93E
:1042300046A018214FF4FC622823CDE9002102900A
:104240004FF4F0723221002000F0B6FB18480068ED
:10425000401E174908604FF6FF704FF42F734FF45C
:10426000F072322100900020FDF768FD02F00AFB99
:104270000DE03BA018214FF478422823CDE900211E
:1042800002904FF4F0723221002000F095FB00F014
:10429000FDFA20B13748006801F078FC03E01420F3
:1042A00001F074FED2E600BFB9E60000D0010020A4
:1042B000D40100203600002020000020280000202B
:1042C0003A000020504C4541534520494E5055542A
:1042D00020544845204E414D45206F66204E45579D
:1042E00020424F4F4B000000D0000020370000203C
:1042F0003800002006050020CA040020D801002054
:1043000041444420424F4F4B205355434345535360
:104310002100000041444420424F4F4B2046414978
:104320004C45442100000000504C45415345204974
:104330004E50555420544845204E414D45206F66FF
:10434000204F6C6420424F4F4B00000044454C45C9
:10435000544520424F4F4B20535543434545210080
:1043600044454C45544520424F4F4B204641494C13
:1043700000000000240000202DE9F04706460F460B
:1043800090461D46D5F80C90102000F09BFC04468A
:1043900014B92046BDE8F0872660277184F80580AF
:1043A000E460A460C9F80840C4F80C90A560EC6013
:1043B0002046EFE770B504460F480078A0B10F48DB
:1043C000007888B90E480088844206DB0C480088D3
:1043D00094FBF0F5284600F01DF80948008894FB8E
:1043E000F0F100FB114084B24FF47A7104FB01F04C
:1043F00000F016F870BD0000CE000020DC000020A8
:10440000CC00002010B500F0C9FD10BD10B500F0C3
:10441000D5FD10BD10B50446204601F0B7FD10BD16
:104420002DE9F047074600264FF0E020D0F8149021
:104430001148007807FB00F800BFFFF7E3FF4FF0DB
:10444000E020856911E04FF0E0208469AC420CD097
:10445000AC4202D2281B064403E0A9EB0400284426
:1044600006442546464500D300E0ECE700BFFFF7D1
:10447000CDFFBDE8F0870000CA00002010B504465B
:10448000207900B910BDD4E902018860D4E9021096
:10449000C860A460E460204600F02EF900BFF1E798
:1044A0000EB5C5E04FF0FF316248006801F08BFBAC
:1044B0004FF0FF316048006801F0C8F94FF6FF7017
:1044C000FDF794FB5DA018211F222823CDE90021D0
:1044D00002904FF4F0721E21002000F06DFA5EA0F1
:1044E00018214FF478426423CDE9002102904FF463
:1044F000F0724FF42F71002000F05EFA0020FEF7FA
:10450000D3FB4D48006801F056F98FE05748FEF79D
:104510003FF9FF2865D15548FFF7ACFC54490860C6
:104520004FF6FF704FF4C8734FF4F072642100909F
:104530000020FDF703FC4E4800680079002840D0B9
:104540004B4800680068182100221E23CDE9002195
:1045500002901A01C821002000F02EFA4448006899
:10456000027944A14948FFF77FF948481821002201
:104570001E23CDE9002102901A01E621002000F05F
:104580001BFA3B480068407968B141A0182100221D
:104590001E23CDE9002102901A014FF48271002000
:1045A00000F00AFA1AE03FA0182100221E23CDE9EC
:1045B000002102901A014FF48271002000F0FCF9F2
:1045C0000CE03EA0182100221E23CDE9002102901C
:1045D0001A014FF48271002000F0EEF90020234907
:1045E00008704FF6FF7040F2C1134FF4F0724FF4B1
:1045F000C87100900020FDF7A1FB1C4818214FF462
:1046000078423223CDE9002102904FF4F072D900B4
:10461000002000F0D1F900F039F920B12C480068F1
:1046200001F0B4FA03E0142001F0B0FC6EE700BF23
:1046300038E700001400002028000020504C4541BD
:10464000534520494E5055542054484520424F4F21
:104650004B204E414D45000052455455524E20547A
:104660004F2054484520434F56455200AC0400208B
:1046700030000020544845204944206F6620424FB6
:104680004F4B206973202564000000008E04002039
:10469000594F552043414E20424F52524F572049C7
:1046A0005400000049542048415645204245454E9B
:1046B00020424F52524F574544000000444F204E75
:1046C0004F5420484156452046494E442049540005
:1046D0002400002070B504460D46E1B20548FFF7FE
:1046E00094F800BF80210348FEF7C1FF0028F9D0ED
:1046F000204670BD0038014010B5002821D0114B74
:104700000022001F196803E0814203D80A46496865
:104710000029F9D152B11368841A9C4204D100686F
:1047200018441060104602E0506000E0186039B193
:1047300002680B1A934203D10B681A44026049685D
:10474000416010BD6804002070B5FF2500240026DC
:104750001C484168002088471A4890F8340000F04F
:10476000800058B117488089174908801548008C87
:104770001649088001201649087021E01448007885
:10478000D8B1002417E0C4EB04104FF4967101EB8C
:1047900080000E49098888420BDA601CC0EB0010CB
:1047A0004FF4967101EB800008490988884200DDCA
:1047B0002546601CC4B2022CE5DB002004490870C9
:1047C000284670BD78000020C2010020C4010020EE
:1047D000C601002070B5FF26002400252748416847
:1047E00000208847254890F8340000F0800058B138
:1047F00022488089224908802048008C214908806D
:1048000001202149087037E01F48007888B3002450
:104810002DE0002526E0C5EB0510000119301849F0
:10482000098888421CDAC5EB05100001E130144903
:104830000988884214DDC4EB0410000119301149C5
:10484000098888420CDAC4EB04100001E1300D49FC
:104850000988884204DD022000FB0450C6B203E050
:10486000681CC5B2022DD6DB00BF601CC4B2022C8E
:10487000CFDB002004490870304670BD780000206E
:10488000BC010020BE010020C001002070B5002442
:104890000025002611484168002088470F4890F8FD
:1048A000340000F0800058B10C4880890C49088021
:1048B0000A48008C0B49088001200B4908700BE066
:1048C0000948007828B107480088B0F52F7F00DD3F
:1048D0000124002004490870204670BD78000020A3
:1048E000C8010020CA010020CC0100200EB542E022
:1048F0004FF0FF312048006801F065F94FF0FF31BB
:104900001E48006800F0A2FF4FF6FF70FDF76EF939
:104910001BA018214FF4FC622823CDE9002102904E
:104920004FF4F0724FF49671002000F045F81CA08F
:1049300018214FF478426423CDE9002102904FF40E
:10494000F0724FF42F71002000F036F80B48006829
:1049500000F031FF0DE00020FBF748FDFFF796FF68
:1049600020B11448006801F011F903E0142001F0AF
:104970000DFBF0E700BFBBE71C0000202800002073
:10498000504C4541534520505554204341524420FA
:104990004F4E2054484520434F4E534F4C45000046
:1049A00052455455524E20544F2054484520434FB1
:1049B00056455200240000202DE9FF5F0746884637
:1049C00014461D46DDE90F69002003900290B9F1FD
:1049D000000F01D1BDE8FF9F4846FBF74FFC1FFACF
:1049E00080FB0BFB06F000EBD071C1F34F0AB54220
:1049F00005DDA81B00EBD071C1F34F010291A24568
:104A000006DCA4EB0A0000EBD071C1F34F01039167
:104A100014490E9808804FF6FF701349088008EB80
:104A2000050CACF1010C1FFA8CF307EB040CACF194
:104A3000010C1FFA8CF2CDE90069DDF808C0C4440E
:104A40001FFA8CF1DDF80CC0BC441FFA8CF0FDF7A6
:104A500024FB4FF6FF70034908801F20024908809D
:104A600000BFB7E76400002066000020FF24FFF7C6
:104A700025FA3AE04FF0FF311C48006800F0E6FEEE
:104A8000FDF720F81948006800F095FE08E0FFF7F0
:104A9000A1FE0446FF2C00D003E0142001F076FABA
:104AA000F5E700BF34B1012C09D0022C0CD0032C47
:104AB00014D10EE00E48006801F068F80EE00D48D1
:104AC000006801F063F809E00B48006801F05EF847
:104AD00004E00A48006801F059F800BF00BF4FF039
:104AE000FF310748006801F06EF8C3E72800002096
:104AF00014000020180000201C00002020000020CE
:104B0000240000201CB501213EA000F03BFE4049DE
:104B10000860012200213FA001F010F84049086020
:104B2000012200213FA001F009F84149086001225B
:104B3000002140A001F002F8424908600122002152
:104B400041A000F0FBFF434908600122002142A080
:104B500000F0F4FF42490860142001214B020022BA
:104B6000CDE900103F4940A001F0E8F93F49086055
:104B70000846006801F026FB142003214FF400735F
:104B80000022CDE900103A493AA001F0D7F93B499B
:104B900008600846006801F015FB142003214FF45B
:104BA00000730022CDE90010354936A001F0C6F9A6
:104BB000364908600846006801F004FB1420032110
:104BC0004FF400730022CDE90010314931A001F00B
:104BD000B5F9334908600846006801F0F3FA14207B
:104BE00003214FF400730022CDE900102D492EA0BF
:104BF00001F0A4F92E4908600846006801F0E2FAC5
:104C000000201CBD6C63645F6D75746578000000E6
:104C10002800002066696E645F73656D0000000007
:104C200014000020626F72726F775F73656D000011
:104C300018000020676976656261636B5F73656D5C
:104C4000000000001C0000206368616E67655F73F0
:104C5000656D0000200000206C63645F73656D006B
:104C6000240000206D4A00086C63640000000020EE
:104C7000A144000866696E64000000000400002082
:104C8000413F0008626F72726F77000008000020D9
:104C9000ED480008676976656261636B000000009B
:104CA0000C0000200D4000086368616E676500001D
:104CB0001000002010B5044600F062F9FFF722FF53
:104CC00010BD0000F0B50B30154D20F00701002499
:104CD000144A0FE003688B420BD38B4205D95E1A4E
:104CE00043184768C3E9006700E04368136002C0E7
:104CF00004E0021D10680028ECD12046002802D1F3
:104D0000286808B10020F0BD064A07481060074A2D
:104D1000121A22F00702C0E9002401202860D7E718
:104D20006C04002068040020544B0020506D0020CB
:104D300030B51A4C436824681919884215D04B883D
:104D40009BB9174B1B6899420FD0164B1B688B42BF
:104D500001D1144B18604B684360104B1B68C31A99
:104D60000E4D4C682D682C44A3600C4C836824685D
:104D70001A19824211D053887BB90A4B1B688342AF
:104D800001D1084B1A6043685360044B1B68D31A67
:104D9000024D44682D682C44A36030BDE000002023
:104DA000E4000020E80000202DE9F04F85B00D461A
:104DB0009C46DDE90F740E9B04F04008B8F1000F2B
:104DC00002D0DFF8688101E0DFF86481CDF800806F
:104DD00004F01008B8F1000F01D024F0010404F031
:104DE0000108B8F1000F02D04FF0300801E04FF099
:104DF0002008C246002604F00208B8F1000F11D0C6
:104E0000002A02DA2D2652420CE004F00408B8F120
:104E1000000F01D02B2605E004F00808B8F1000FC0
:104E200000D02026002142B94FF0300B8846491CA3
:104E30000DF1040909F808B01DE01AE0E146B9F1E6
:104E40000A0F08D14FF00A0BB2FBFBFE0BFB1E282A
:104E5000B2FBFBF202E002F00F08120900BFDDF81E
:104E6000009019F808B08846491C0DF1040909F8AA
:104E700008B0002AE2D1B94200DD0F46DB1B04F086
:104E80001108B8F1000F10D116B1002B00DD5B1E28
:104E900006E0A84203D84FF0200880F80080401CAC
:104EA000B3F10008A3F10103F3DC26B1A84201D855
:104EB00006705B1E401C04F01008B8F1000F0AD108
:104EC00004E0A84201D880F800A0401CB3F100081B
:104ED000A3F10103F5DC06E0A84203D84FF0300847
:104EE00080F80080401CB8467F1E8845F4DC08E04E
:104EF000A84205D80DF1040818F8018080F8008058
:104F0000401CB1F10008A1F10101F1DC06E0A8426A
:104F100003D84FF0200880F80080401CB3F100084F
:104F2000A3F10103F3DC05B0BDE8F08FA1B30008E5
:104F300090B300081CB514200A214FF4007300221E
:104F4000CDE90010044905A000F0F8FF0446204612
:104F500001F038F91CBD0000B54C00086D61696EA8
:104F60000000000010B5044C02E020688047241DBA
:104F700002488442F9D310BD389805083C980508CA
:104F800010B5044C02E020688047241D024884428A
:104F9000F9D310BD3C9805084098050810B5FBF7FB
:104FA000E3F8044604480088401C00B20249088027
:104FB0002046FBF7DDF810BD6801002010B5FBF7B7
:104FC000D3F804460B480088401E00B20949088007
:104FD0000846B0F90000002807DC002008802046C1
:104FE000FBF7C6F800F010FD02E02046FBF7C0F822
:104FF00010BD00006801002070B5054605B970BD00
:105000001D480068854203D31C480068854200D3D0
:10501000F5E7A5F10C044FF0FF31194800F0D3FD7E
:10502000608818B12088B0F5F55F08D015A000F0B1
:105030006FFA23886288214619A000F069FA0020DF
:1050400060804FF4F550208021480068844201D2EE
:105050001F480460084960680968611A401A1D49C0
:105060000968081A1B4908602046FFF761FE0448DA
:1050700000F08CFD00BFC2E7E0000020E40000204B
:10508000C8470020746F20667265652061206261E8
:1050900064206461746120626C6F636B3A0A000083
:1050A0006D656D3A203078253038782C2075736521
:1050B0006420666C61673A2025642C206D61676905
:1050C0006320636F64653A203078253034780A00B5
:1050D000E8000020F000002000487047D0050020C4
:1050E00000487047D045002070B52A4800684FF44A
:1050F0007A72B0FBF2F1B1F1807F00D31DE021F0B4
:105100007F40401E4FF0E022506150170F220028D0
:1051100007DA13071D0E204B00F00F04241F1D5546
:1051200003E013071C0E1D4B1C5400BF00204FF062
:10513000E02290610720106100BF4820FDF7DEFDEE
:105140004FF4A060FDF7F0F84FF4E130FEF722FADB
:10515000FCF7F2FFFCF72CFDFDF740F8FDF7B4FE7D
:10516000FEF7C5F9FBF73DF948F69F411420FEF71D
:10517000D9F8FDF783FB012009490870FFF7F2FE1B
:10518000FFF7AEFF0446FFF7A7FF0546214600F0F4
:10519000D1FD70BD5000002018ED00E000E400E0FB
:1051A000CE00002010B50446FFF7F8FE19E0207885
:1051B0000A280AD10D200E49088000BF0C48001FA4
:1051C000008800F040000028F8D014F8010B0849CE
:1051D000088000BF0648001F008800F0400000283B
:1051E000F8D020780028E2D1FFF7E8FE10BD0000DB
:1051F0000438014070B505462C1D2E48006838B1B2
:1052000028462C4909688847064606B970BD00BF84
:1052100029A0E16B00F07CF92BA0216A00F078F95D
:105220002DA0616A00F074F92FA0A16A00F070F956
:1052300031A0E16A00F06CF933A0216800F068F950
:1052400035A0616800F064F937A0A16800F060F94A
:1052500039A0E16800F05CF93BA0216900F058F941
:105260003DA0616900F054F93FA0A16900F050F938
:1052700041A0E16900F04CF943A0216B00F048F92E
:1052800045A0616B00F044F947A0A16B00F040F924
:10529000287800F0040038B100F06CFF0646314673
:1052A00045A000F035F902E04BA000F031F900BF55
:1052B000FEE70000980100207073723A20307825D4
:1052C0003038780A000000007230303A20307825FB
:1052D0003038780A000000007230313A20307825EA
:1052E0003038780A000000007230323A20307825D9
:1052F0003038780A000000007230333A20307825C8
:105300003038780A000000007230343A20307825B6
:105310003038780A000000007230353A20307825A5
:105320003038780A000000007230363A2030782594
:105330003038780A000000007230373A2030782583
:105340003038780A000000007230383A2030782572
:105350003038780A000000007230393A2030782561
:105360003038780A000000007231303A2030782559
:105370003038780A000000007231313A2030782548
:105380003038780A000000007231323A2030782537
:105390003038780A00000000206C723A20307825FE
:1053A0003038780A000000002070633A20307825F9
:1053B0003038780A00000000686172642066617508
:1053C0006C74206F6E207468726561643A20257376
:1053D0000D0A0D0A000000006861726420666175A4
:1053E0006C74206F6E2068616E646C65720D0A0DBE
:1053F0000A000000F0B504460D461646301D20F0A8
:10540000070040380146002203E00C4F41F82270AB
:10541000521C102AF9D30D624FF0000CC1F824C0C1
:10542000C1F828C0C1F82CC0C1F830C04B638C63F0
:105430004FF0807CC1F83CC0F0BD0000EFBEADDE97
:1054400010B5FAF791FE044604480078401C034961
:1054500008702046FAF78CFE10BD0000DC0000202A
:1054600010B5FAF781FE044604480078401E03494F
:1054700008702046FAF77CFE10BD0000DC0000201A
:1054800070B504462068A0F11405284600F054FECB
:10549000002070BD2DE9F04105460C46904620469F
:1054A00000F0A6FEB8F1000F03D0B8F1010F23D130
:1054B00005E004F11401284600F060F81CE02E68B5
:1054C0000FE0A6F1140794F8350097F835108842DC
:1054D00006DA04F1140107F1140000F04FF802E0BD
:1054E0003668AE42EDD100BFAE4204D104F11401E2
:1054F000284600F043F800BF00BF0020BDE8F0815F
:1055000010B5044604F1140000F01AF8002010BD94
:105510000FB438B505A800907F210848009B049A75
:1055200000F0FEFF04467F2C00D97F240348FFF7DC
:1055300039FE0020009038BC5DF814FB484700207D
:1055400040600060704740600060704740600060ED
:1055500070470268516002680A60016048607047E5
:105560000268516002680A60016048607047026822
:10557000516002680A6001604860704742681160CB
:1055800042684A6041600860704701460868884286
:1055900001D1012070470020FCE7014608688842DD
:1055A00001D1012070470020FCE7D0E900215160C3
:1055B000D0E900121160406000607047D0E900211E
:1055C0005160D0E900121160406000607047000037
:1055D0002DE9F041054615B90020BDE8F081E81C31
:1055E00020F003054E480068854201D90020F4E709
:1055F0000C2D00D20C254FF0FF314A4800F0E3FAA1
:105600004948006849490968461A7EE047480068E9
:1056100084196088002874D106F10C006168081AAA
:10562000A8426ED306F10C006168091A05F1180052
:10563000814230D306F10C0000EB05083B480068BE
:1056400000EB08074FF4F550388000207880606840
:105650007860BE60C4F804800120608030487968BA
:1056600000680C30814205D03049786809680844E8
:10567000C0F808802E48016805F10C0008442C4948
:1056800008602C4800680968884219D228480068D8
:105690002849086014E00120608024496068096896
:1056A000611A401A224909680844214908602148C2
:1056B00000680968884203D21D4800681D490860D7
:1056C0004FF4F550208018480068844212D107E05A
:1056D000154800684068154909680844124908607F
:1056E00011480068408828B10F48006812490968CD
:1056F0008842EDD10B4800F049FA04F10C006CE748
:10570000FFE70A4800683044466805480068401BC7
:10571000B0423FF67BAF034800F038FA00205CE768
:10572000EC000020C8470020E8000020E000002036
:10573000F0000020F4000020E4000020F0B50C464A
:105740000546E6B2042A15D300F0030797B90146CF
:1057500046EA062343EA034304E008C108C108C13E
:1057600008C1103A102AF8D201E008C1121F042A19
:10577000FBD20D4601E005F8016B171EA2F10102F4
:10578000F9D1F0BD70B505460E462946022000F05D
:10579000BDF804460CB9204670BD2046FFF7B0FEA8
:1057A0000120A08300202062FF20A0770020E07766
:1057B00066722046F0E72DE9F0410446002700F02C
:1057C000D9FC0546FAF7D0FC0646206AA84207D065
:1057D000781E28633046FAF7CBFC781EBDE8F081CE
:1057E000E07F401EE077E07FF8B9A07F216A91F862
:1057F0003510884205D004F11E020221206A00F013
:1058000062FB04F11400FFF7C0FE78B96069A0F1F3
:105810001405256295F83500A077E07F401CE077FD
:1058200004F11400FFF72CFE012706E0A08B401CBA
:10583000A08300202062FF20A0773046FAF798FC72
:10584000012F01D100F0E0F80020C7E773B504464E
:1058500000F090FC0546FAF787FC06460020286316
:10586000206AA84203D1E07F401CE07749E000BFF6
:10587000A08B00280ADDA08B401EA083256295F82E
:105880003500A077E07F401CE0773AE0019840B90E
:105890006FF0010028633046FAF76AFC6FF00100F0
:1058A0007CBD95F83500216A91F83510884205DAFB
:1058B00005F135020221206A00F005FB627A2946D3
:1058C00004F11400FFF7E6FD0198002809DD01AAA4
:1058D000002105F1440000F04BFD05F1440000F00B
:1058E0008BFD3046FAF744FC00F08EF8286B28B1A7
:1058F000286B093000B9BBE7286BD1E7FAF734FC15
:1059000006463046FAF734FC0020C9E72DE9F0419D
:1059100005460F46284600F03BF80646F068FFF7BC
:1059200057FE044614B90020BDE8F081257200201E
:10593000607208223946204600F0E1F9FAF714FCBB
:10594000804604F10C01301DFFF703FE4046FAF7D4
:105950000FFC2046E8E770B50446FAF705FC05465B
:1059600004F10C00FFF721FE2846FAF701FC20465F
:10597000FFF742FB70BD70B50446FAF7F5FB05462C
:1059800004F10C00FFF711FE2846FAF7F1FB70BD99
:10599000024600210AE0074800EB0110007890421F
:1059A00003D1044800EB01107047491C0729F2DBC2
:1059B0000020F9E7F80000202DE9F04104460D46EB
:1059C00016462846FFF7E4FF074645F080002072A0
:1059D00008223146204600F092F9FAF7C5FB8046CE
:1059E00004F10C01381DFFF7B4FD4046FAF7C0FB87
:1059F000BDE8F0810146087A00F0800008B101207E
:105A000070470020FCE700002DE9F041FAF7ACFBFD
:105A100007461B48008868BB1A480068FDF738FF36
:105A2000461E194850F83600A0F1140417480068C3
:105A300084421BD016490E7014480568046015484E
:105A4000007848B904F11C0105F11C00FAF793FB3A
:105A50003846FAF78DFB0CE004F11C0105F11C003F
:105A6000FAF789FB3846FAF783FB02E03846FAF783
:105A70007FFB02E03846FAF77BFBBDE8F0810000CF
:105A80006801002074010020E84700206C0100201C
:105A900070010020DC00002070B50446FAF764FBBA
:105AA000054614F8340F20F00F0040F0010020707C
:105AB0006278343C0A4B03EBC20004F114014268E3
:105AC000116042684A604160086000BF0549A06BF0
:105AD00009680843034908602846FAF749FB70BD86
